:02000000CB280B
:0E0006008312031321088A00200882000800DC
:10001400A53083120313FD00FD0B0E280000000021
:020024000800D2
:1000260083120313FB01FA01F9018030F800F10C89
:10003600F00C031C27287408F90775080318750FB8
:10004600FA070318FB0A0310F01F2F287408FA0793
:1000560075080318750FFB07FB0CFA0CF90CF80C66
:10006600031C1A287B08F3007A08F2007908F100CD
:060076007808F00008000C
:10007C00831603130711831212150C309704080012
:10008C0083120313A9012508F1000130F000710857
:10009C0003195428F00D7010FF3E4E287008A8006C
:1000AC002408840070080005F10071080130031D5C
:1000BC000030F0002708F00603197C282608003CC5
:1000CC0003186C280A200A20A6036428240884003C
:1000DC0028080005F10071080130031D0030F00004
:1000EC002708F00603197C28FF30A9002908F00026
:0200FC000800FA
:0C00FE00831203139501171297120800DB
:10010A0003208A110A128000840AA00A0319A10A8C
:08011A00F003031D8528080015
:10012200831603131208013EF000F1010318F10ACD
:1001320083122408F400F50113200630F20070083F
:10014200F4007108F50072080319AC28F50CF40CE0
:10015200F513FF3EA5280430F1007408F000710881
:100162000319B728F00D7010FF3EB128303070052A
:10017200F3007408F0007508F100F10CF00CF113B3
:10018200F10CF00CF113700895000F30970573080D
:0401920097040800C6
:100196008316031788018901FF3083120313850034
:1001A600FF30831685008312870183168701831229
:1001B60012109210C730831692007F201030A200D2
:1001C600A3013E200530A400A5010130A6000130A0
:1001D600A700462070080319F128A20A0530A400DA
:1001E6000130A5000130A6000130A70046207008A6
:1001F6000319FE28A2032308220603190729220849
:10020600A40091202208A3000230FB000430FC0069
:10021600BA30FD00FD0B0D29FC0B0D29FB0B0D293A
:060226000000E528152987
:04400E00D2230007B2
:00000001FF
